{
  "contractName": "RockstarsNFTDev",
  "abi": [
    {
      "inputs": [
        {
          "internalType": "string",
          "name": "_name",
          "type": "string"
        },
        {
          "internalType": "string",
          "name": "_symbol",
          "type": "string"
        },
        {
          "internalType": "string",
          "name": "_initBaseURI",
          "type": "string"
        }
      ],
      "stateMutability": "nonpayable",
      "type": "constructor"
    },
    {
      "anonymous": false,
      "inputs": [
        {
          "indexed": true,
          "internalType": "address",
          "name": "owner",
          "type": "address"
        },
        {
          "indexed": true,
          "internalType": "address",
          "name": "approved",
          "type": "address"
        },
        {
          "indexed": true,
          "internalType": "uint256",
          "name": "tokenId",
          "type": "uint256"
        }
      ],
      "name": "Approval",
      "type": "event"
    },
    {
      "anonymous": false,
      "inputs": [
        {
          "indexed": true,
          "internalType": "address",
          "name": "owner",
          "type": "address"
        },
        {
          "indexed": true,
          "internalType": "address",
          "name": "operator",
          "type": "address"
        },
        {
          "indexed": false,
          "internalType": "bool",
          "name": "approved",
          "type": "bool"
        }
      ],
      "name": "ApprovalForAll",
      "type": "event"
    },
    {
      "anonymous": false,
      "inputs": [
        {
          "indexed": true,
          "internalType": "address",
          "name": "previousOwner",
          "type": "address"
        },
        {
          "indexed": true,
          "internalType": "address",
          "name": "newOwner",
          "type": "address"
        }
      ],
      "name": "OwnershipTransferred",
      "type": "event"
    },
    {
      "anonymous": false,
      "inputs": [
        {
          "indexed": true,
          "internalType": "address",
          "name": "from",
          "type": "address"
        },
        {
          "indexed": true,
          "internalType": "address",
          "name": "to",
          "type": "address"
        },
        {
          "indexed": true,
          "internalType": "uint256",
          "name": "tokenId",
          "type": "uint256"
        }
      ],
      "name": "Transfer",
      "type": "event"
    },
    {
      "inputs": [
        {
          "internalType": "address",
          "name": "to",
          "type": "address"
        },
        {
          "internalType": "uint256",
          "name": "tokenId",
          "type": "uint256"
        }
      ],
      "name": "approve",
      "outputs": [],
      "stateMutability": "nonpayable",
      "type": "function"
    },
    {
      "inputs": [
        {
          "internalType": "address",
          "name": "owner",
          "type": "address"
        }
      ],
      "name": "balanceOf",
      "outputs": [
        {
          "internalType": "uint256",
          "name": "",
          "type": "uint256"
        }
      ],
      "stateMutability": "view",
      "type": "function",
      "constant": true
    },
    {
      "inputs": [],
      "name": "baseExtension",
      "outputs": [
        {
          "internalType": "string",
          "name": "",
          "type": "string"
        }
      ],
      "stateMutability": "view",
      "type": "function",
      "constant": true
    },
    {
      "inputs": [],
      "name": "baseURI",
      "outputs": [
        {
          "internalType": "string",
          "name": "",
          "type": "string"
        }
      ],
      "stateMutability": "view",
      "type": "function",
      "constant": true
    },
    {
      "inputs": [],
      "name": "cost",
      "outputs": [
        {
          "internalType": "uint256",
          "name": "",
          "type": "uint256"
        }
      ],
      "stateMutability": "view",
      "type": "function",
      "constant": true
    },
    {
      "inputs": [
        {
          "internalType": "uint256",
          "name": "tokenId",
          "type": "uint256"
        }
      ],
      "name": "getApproved",
      "outputs": [
        {
          "internalType": "address",
          "name": "",
          "type": "address"
        }
      ],
      "stateMutability": "view",
      "type": "function",
      "constant": true
    },
    {
      "inputs": [
        {
          "internalType": "address",
          "name": "owner",
          "type": "address"
        },
        {
          "internalType": "address",
          "name": "operator",
          "type": "address"
        }
      ],
      "name": "isApprovedForAll",
      "outputs": [
        {
          "internalType": "bool",
          "name": "",
          "type": "bool"
        }
      ],
      "stateMutability": "view",
      "type": "function",
      "constant": true
    },
    {
      "inputs": [],
      "name": "maxMintAmount",
      "outputs": [
        {
          "internalType": "uint256",
          "name": "",
          "type": "uint256"
        }
      ],
      "stateMutability": "view",
      "type": "function",
      "constant": true
    },
    {
      "inputs": [],
      "name": "maxSupply",
      "outputs": [
        {
          "internalType": "uint256",
          "name": "",
          "type": "uint256"
        }
      ],
      "stateMutability": "view",
      "type": "function",
      "constant": true
    },
    {
      "inputs": [],
      "name": "metaDataFolder",
      "outputs": [
        {
          "internalType": "string",
          "name": "",
          "type": "string"
        }
      ],
      "stateMutability": "view",
      "type": "function",
      "constant": true
    },
    {
      "inputs": [],
      "name": "name",
      "outputs": [
        {
          "internalType": "string",
          "name": "",
          "type": "string"
        }
      ],
      "stateMutability": "view",
      "type": "function",
      "constant": true
    },
    {
      "inputs": [],
      "name": "owner",
      "outputs": [
        {
          "internalType": "address",
          "name": "",
          "type": "address"
        }
      ],
      "stateMutability": "view",
      "type": "function",
      "constant": true
    },
    {
      "inputs": [
        {
          "internalType": "uint256",
          "name": "tokenId",
          "type": "uint256"
        }
      ],
      "name": "ownerOf",
      "outputs": [
        {
          "internalType": "address",
          "name": "",
          "type": "address"
        }
      ],
      "stateMutability": "view",
      "type": "function",
      "constant": true
    },
    {
      "inputs": [],
      "name": "paused",
      "outputs": [
        {
          "internalType": "bool",
          "name": "",
          "type": "bool"
        }
      ],
      "stateMutability": "view",
      "type": "function",
      "constant": true
    },
    {
      "inputs": [],
      "name": "renounceOwnership",
      "outputs": [],
      "stateMutability": "nonpayable",
      "type": "function"
    },
    {
      "inputs": [
        {
          "internalType": "address",
          "name": "from",
          "type": "address"
        },
        {
          "internalType": "address",
          "name": "to",
          "type": "address"
        },
        {
          "internalType": "uint256",
          "name": "tokenId",
          "type": "uint256"
        }
      ],
      "name": "safeTransferFrom",
      "outputs": [],
      "stateMutability": "nonpayable",
      "type": "function"
    },
    {
      "inputs": [
        {
          "internalType": "address",
          "name": "from",
          "type": "address"
        },
        {
          "internalType": "address",
          "name": "to",
          "type": "address"
        },
        {
          "internalType": "uint256",
          "name": "tokenId",
          "type": "uint256"
        },
        {
          "internalType": "bytes",
          "name": "_data",
          "type": "bytes"
        }
      ],
      "name": "safeTransferFrom",
      "outputs": [],
      "stateMutability": "nonpayable",
      "type": "function"
    },
    {
      "inputs": [
        {
          "internalType": "address",
          "name": "operator",
          "type": "address"
        },
        {
          "internalType": "bool",
          "name": "approved",
          "type": "bool"
        }
      ],
      "name": "setApprovalForAll",
      "outputs": [],
      "stateMutability": "nonpayable",
      "type": "function"
    },
    {
      "inputs": [
        {
          "internalType": "bytes4",
          "name": "interfaceId",
          "type": "bytes4"
        }
      ],
      "name": "supportsInterface",
      "outputs": [
        {
          "internalType": "bool",
          "name": "",
          "type": "bool"
        }
      ],
      "stateMutability": "view",
      "type": "function",
      "constant": true
    },
    {
      "inputs": [],
      "name": "symbol",
      "outputs": [
        {
          "internalType": "string",
          "name": "",
          "type": "string"
        }
      ],
      "stateMutability": "view",
      "type": "function",
      "constant": true
    },
    {
      "inputs": [
        {
          "internalType": "uint256",
          "name": "index",
          "type": "uint256"
        }
      ],
      "name": "tokenByIndex",
      "outputs": [
        {
          "internalType": "uint256",
          "name": "",
          "type": "uint256"
        }
      ],
      "stateMutability": "view",
      "type": "function",
      "constant": true
    },
    {
      "inputs": [
        {
          "internalType": "address",
          "name": "owner",
          "type": "address"
        },
        {
          "internalType": "uint256",
          "name": "index",
          "type": "uint256"
        }
      ],
      "name": "tokenOfOwnerByIndex",
      "outputs": [
        {
          "internalType": "uint256",
          "name": "",
          "type": "uint256"
        }
      ],
      "stateMutability": "view",
      "type": "function",
      "constant": true
    },
    {
      "inputs": [],
      "name": "totalSupply",
      "outputs": [
        {
          "internalType": "uint256",
          "name": "",
          "type": "uint256"
        }
      ],
      "stateMutability": "view",
      "type": "function",
      "constant": true
    },
    {
      "inputs": [
        {
          "internalType": "address",
          "name": "from",
          "type": "address"
        },
        {
          "internalType": "address",
          "name": "to",
          "type": "address"
        },
        {
          "internalType": "uint256",
          "name": "tokenId",
          "type": "uint256"
        }
      ],
      "name": "transferFrom",
      "outputs": [],
      "stateMutability": "nonpayable",
      "type": "function"
    },
    {
      "inputs": [
        {
          "internalType": "address",
          "name": "newOwner",
          "type": "address"
        }
      ],
      "name": "transferOwnership",
      "outputs": [],
      "stateMutability": "nonpayable",
      "type": "function"
    },
    {
      "inputs": [
        {
          "internalType": "address",
          "name": "",
          "type": "address"
        }
      ],
      "name": "whitelisted",
      "outputs": [
        {
          "internalType": "bool",
          "name": "",
          "type": "bool"
        }
      ],
      "stateMutability": "view",
      "type": "function",
      "constant": true
    },
    {
      "inputs": [
        {
          "internalType": "address",
          "name": "_to",
          "type": "address"
        },
        {
          "internalType": "uint256",
          "name": "_mintAmount",
          "type": "uint256"
        }
      ],
      "name": "mint",
      "outputs": [],
      "stateMutability": "payable",
      "type": "function",
      "payable": true
    },
    {
      "inputs": [
        {
          "internalType": "address",
          "name": "_owner",
          "type": "address"
        }
      ],
      "name": "walletOfOwner",
      "outputs": [
        {
          "internalType": "uint256[]",
          "name": "",
          "type": "uint256[]"
        }
      ],
      "stateMutability": "view",
      "type": "function",
      "constant": true
    },
    {
      "inputs": [
        {
          "internalType": "uint256",
          "name": "tokenId",
          "type": "uint256"
        }
      ],
      "name": "tokenURI",
      "outputs": [
        {
          "internalType": "string",
          "name": "",
          "type": "string"
        }
      ],
      "stateMutability": "view",
      "type": "function",
      "constant": true
    },
    {
      "inputs": [
        {
          "internalType": "uint256",
          "name": "_newCost",
          "type": "uint256"
        }
      ],
      "name": "setCost",
      "outputs": [],
      "stateMutability": "nonpayable",
      "type": "function"
    },
    {
      "inputs": [
        {
          "internalType": "uint256",
          "name": "_newmaxMintAmount",
          "type": "uint256"
        }
      ],
      "name": "setmaxMintAmount",
      "outputs": [],
      "stateMutability": "nonpayable",
      "type": "function"
    },
    {
      "inputs": [
        {
          "internalType": "string",
          "name": "_newBaseURI",
          "type": "string"
        }
      ],
      "name": "setBaseURI",
      "outputs": [],
      "stateMutability": "nonpayable",
      "type": "function"
    },
    {
      "inputs": [
        {
          "internalType": "string",
          "name": "_newBaseExtension",
          "type": "string"
        }
      ],
      "name": "setBaseExtension",
      "outputs": [],
      "stateMutability": "nonpayable",
      "type": "function"
    },
    {
      "inputs": [
        {
          "internalType": "bool",
          "name": "_state",
          "type": "bool"
        }
      ],
      "name": "pause",
      "outputs": [],
      "stateMutability": "nonpayable",
      "type": "function"
    },
    {
      "inputs": [
        {
          "internalType": "address",
          "name": "_user",
          "type": "address"
        }
      ],
      "name": "whitelistUser",
      "outputs": [],
      "stateMutability": "nonpayable",
      "type": "function"
    },
    {
      "inputs": [
        {
          "internalType": "address",
          "name": "_user",
          "type": "address"
        }
      ],
      "name": "removeWhitelistUser",
      "outputs": [],
      "stateMutability": "nonpayable",
      "type": "function"
    },
    {
      "inputs": [],
      "name": "withdraw",
      "outputs": [],
      "stateMutability": "payable",
      "type": "function",
      "payable": true
    }
  ],
  "bytecode": "0x60806040526040518060400160405280600581526020017f2e6a736f6e000000000000000000000000000000000000000000000000000000815250600c90805190602001906200005192919062001037565b506040518060400160405280600981526020017f6d657461646174612f0000000000000000000000000000000000000000000000815250600d90805190602001906200009f92919062001037565b50655af3107a4000600e556064600f5560146010556000601160006101000a81548160ff021916908315150217905550348015620000dc57600080fd5b5060405162005e4138038062005e4183398181016040528101906200010291906200119c565b828281600090805190602001906200011c92919062001037565b5080600190805190602001906200013592919062001037565b5050506200016a62000155620001a9640100000000026401000000009004565b620001b1640100000000026401000000009004565b620001848162000277640100000000026401000000009004565b620001a033600562000334640100000000026401000000009004565b50505062001901565b600033905090565b6000600a60009054906101000a900473ffffffffffffffffffffffffffffffffffffffff16905081600a60006101000a81548173ffffffffffffffffffffffffffffffffffffffff021916908373ffffffffffffffffffffffffffffffffffffffff1602179055508173ffffffffffffffffffffffffffffffffffffffff168173ffffffffffffffffffffffffffffffffffffffff167f8be0079c531659141344cd1fd0a4f28419497f9722a3daafe3b4186f6b6457e060405160405180910390a35050565b62000290620001a9640100000000026401000000009004565b73ffffffffffffffffffffffffffffffffffffffff16620002bf620004f6640100000000026401000000009004565b73ffffffffffffffffffffffffffffffffffffffff161462000318576040517f08c379a00000000000000000000000000000000000000000000000000000000081526004016200030f9062001554565b60405180910390fd5b80600b90805190602001906200033092919062001037565b5050565b60006200034f62000520640100000000026401000000009004565b9050601160009054906101000a900460ff16156200036c57600080fd5b600082116200037a57600080fd5b6010548211156200038a57600080fd5b600f5482826200039b91906200162c565b1115620003a757600080fd5b620003c0620004f6640100000000026401000000009004565b73ffffffffffffffffffffffffffffffffffffffff163373ffffffffffffffffffffffffffffffffffffffff1614620004a35760011515601260003373ffffffffffffffffffffffffffffffffffffffff1673ffffffffffffffffffffffffffffffffffffffff16815260200190815260200160002060009054906101000a900460ff16151514620004a25781600e546200045c919062001689565b341015620004a1576040517f08c379a0000000000000000000000000000000000000000000000000000000008152600401620004989062001576565b60405180910390fd5b5b5b6000600190505b828111620004f057620004da848284620004c591906200162c565b6200052d640100000000026401000000009004565b8080620004e790620017fb565b915050620004aa565b50505050565b6000600a60009054906101000a900473ffffffffffffffffffffffffffffffffffffffff16905090565b6000600880549050905090565b620005588282604051806020016040528060008152506200055c640100000000026401000000009004565b5050565b620005778383620005dc640100000000026401000000009004565b620005956000848484620007d4640100000000026401000000009004565b620005d7576040517f08c379a0000000000000000000000000000000000000000000000000000000008152600401620005ce90620014cc565b60405180910390fd5b505050565b600073ffffffffffffffffffffffffffffffffffffffff168273ffffffffffffffffffffffffffffffffffffffff1614156200064f576040517f08c379a0000000000000000000000000000000000000000000000000000000008152600401620006469062001532565b60405180910390fd5b6200066981620009d8640100000000026401000000009004565b15620006ac576040517f08c379a0000000000000000000000000000000000000000000000000000000008152600401620006a390620014ee565b60405180910390fd5b620006c96000838362000a44640100000000026401000000009004565b6001600360008473ffffffffffffffffffffffffffffffffffffffff1673ffffffffffffffffffffffffffffffffffffffff16815260200190815260200160002060008282546200071b91906200162c565b92505081905550816002600083815260200190815260200160002060006101000a81548173ffffffffffffffffffffffffffffffffffffffff021916908373ffffffffffffffffffffffffffffffffffffffff160217905550808273ffffffffffffffffffffffffffffffffffffffff16600073ffffffffffffffffffffffffffffffffffffffff167fddf252ad1be2c89b69c2b068fc378daa952ba7f163c4a11628f55a4df523b3ef60405160405180910390a45050565b60006200080b8473ffffffffffffffffffffffffffffffffffffffff1662000bb86401000000000262001dbc176401000000009004565b15620009cb578373ffffffffffffffffffffffffffffffffffffffff1663150b7a0262000846620001a9640100000000026401000000009004565b8786866040518563ffffffff167c010000000000000000000000000000000000000000000000000000000002815260040162000886949392919062001478565b602060405180830381600087803b158015620008a157600080fd5b505af1925050508015620008d557506040513d601f19601f82011682018060405250810190620008d2919062001170565b60015b6200095e573d806000811462000908576040519150601f19603f3d011682016040523d82523d6000602084013e6200090d565b606091505b5060008151141562000956576040517f08c379a00000000000000000000000000000000000000000000000000000000081526004016200094d90620014cc565b60405180910390fd5b805181602001fd5b63150b7a027c0100000000000000000000000000000000000000000000000000000000027bffffffffffffffffffffffffffffffffffffffffffffffffffffffff1916817bffffffffffffffffffffffffffffffffffffffffffffffffffffffff191614915050620009d0565b600190505b949350505050565b60008073ffffffffffffffffffffffffffffffffffffffff166002600084815260200190815260200160002060009054906101000a900473ffffffffffffffffffffffffffffffffffffffff1673ffffffffffffffffffffffffffffffffffffffff1614159050919050565b62000a6583838362000bcb6401000000000262001dcf176401000000009004565b600073ffffffffffffffffffffffffffffffffffffffff168373ffffffffffffffffffffffffffffffffffffffff16141562000abb5762000ab58162000bd0640100000000026401000000009004565b62000b0c565b8173ffffffffffffffffffffffffffffffffffffffff168373ffffffffffffffffffffffffffffffffffffffff161462000b0b5762000b0a838262000c19640100000000026401000000009004565b5b5b600073ffffffffffffffffffffffffffffffffffffffff168273ffffffffffffffffffffffffffffffffffffffff16141562000b625762000b5c8162000d9f640100000000026401000000009004565b62000bb3565b8273ffffffffffffffffffffffffffffffffffffffff168273ffffffffffffffffffffffffffffffffffffffff161462000bb25762000bb1828262000ee7640100000000026401000000009004565b5b5b505050565b600080823b905060008111915050919050565b505050565b6008805490506009600083815260200190815260200160002081905550600881908060018154018082558091505060019003906000526020600020016000909190919091505550565b6000600162000c3c8462000f7c6401000000000262001546176401000000009004565b62000c489190620016ea565b905060006007600084815260200190815260200160002054905081811462000d2e576000600660008673ffffffffffffffffffffffffffffffffffffffff1673ffffffffffffffffffffffffffffffffffffffff168152602001908152602001600020600084815260200190815260200160002054905080600660008773ffffffffffffffffffffffffffffffffffffffff1673ffffffffffffffffffffffffffffffffffffffff168152602001908152602001600020600084815260200190815260200160002081905550816007600083815260200190815260200160002081905550505b6007600084815260200190815260200160002060009055600660008573ffffffffffffffffffffffffffffffffffffffff1673ffffffffffffffffffffffffffffffffffffffff16815260200190815260200160002060008381526020019081526020016000206000905550505050565b6000600160088054905062000db59190620016ea565b905060006009600084815260200190815260200160002054905060006008838154811062000e0c577f4e487b7100000000000000000000000000000000000000000000000000000000600052603260045260246000fd5b90600052602060002001549050806008838154811062000e55577f4e487b7100000000000000000000000000000000000000000000000000000000600052603260045260246000fd5b90600052602060002001819055508160096000838152602001908152602001600020819055506009600085815260200190815260200160002060009055600880548062000ecb577f4e487b7100000000000000000000000000000000000000000000000000000000600052603160045260246000fd5b6001900381819060005260206000200160009055905550505050565b600062000f088362000f7c6401000000000262001546176401000000009004565b905081600660008573ffffffffffffffffffffffffffffffffffffffff1673ffffffffffffffffffffffffffffffffffffffff168152602001908152602001600020600083815260200190815260200160002081905550806007600084815260200190815260200160002081905550505050565b60008073ffffffffffffffffffffffffffffffffffffffff168273ffffffffffffffffffffffffffffffffffffffff16141562000ff0576040517f08c379a000000000000000000000000000000000000000000000000000000000815260040162000fe79062001510565b60405180910390fd5b600360008373ffffffffffffffffffffffffffffffffffffffff1673ffffffffffffffffffffffffffffffffffffffff168152602001908152602001600020549050919050565b8280546200104590620017c5565b90600052602060002090601f016020900481019282620010695760008555620010b5565b82601f106200108457805160ff1916838001178555620010b5565b82800160010185558215620010b5579182015b82811115620010b457825182559160200191906001019062001097565b5b509050620010c49190620010c8565b5090565b5b80821115620010e3576000816000905550600101620010c9565b5090565b6000620010fe620010f884620015cc565b62001598565b9050828152602081018484840111156200111757600080fd5b620011248482856200178f565b509392505050565b6000815190506200113d81620018e7565b92915050565b600082601f8301126200115557600080fd5b815162001167848260208601620010e7565b91505092915050565b6000602082840312156200118357600080fd5b600062001193848285016200112c565b91505092915050565b600080600060608486031215620011b257600080fd5b600084015167ffffffffffffffff811115620011cd57600080fd5b620011db8682870162001143565b935050602084015167ffffffffffffffff811115620011f957600080fd5b620012078682870162001143565b925050604084015167ffffffffffffffff8111156200122557600080fd5b620012338682870162001143565b9150509250925092565b620012488162001725565b82525050565b60006200125b82620015ff565b6200126781856200160a565b9350620012798185602086016200178f565b6200128481620018d6565b840191505092915050565b60006200129e6032836200161b565b91507f4552433732313a207472616e7366657220746f206e6f6e20455243373231526560008301527f63656976657220696d706c656d656e74657200000000000000000000000000006020830152604082019050919050565b600062001306601c836200161b565b91507f4552433732313a20746f6b656e20616c7265616479206d696e746564000000006000830152602082019050919050565b600062001348602a836200161b565b91507f4552433732313a2062616c616e636520717565727920666f7220746865207a6560008301527f726f2061646472657373000000000000000000000000000000000000000000006020830152604082019050919050565b6000620013b06020836200161b565b91507f4552433732313a206d696e7420746f20746865207a65726f20616464726573736000830152602082019050919050565b6000620013f26020836200161b565b91507f4f776e61626c653a2063616c6c6572206973206e6f7420746865206f776e65726000830152602082019050919050565b6000620014346013836200161b565b91507f4e6f7420656e6f756768204554482073656e74000000000000000000000000006000830152602082019050919050565b620014728162001785565b82525050565b60006080820190506200148f60008301876200123d565b6200149e60208301866200123d565b620014ad604083018562001467565b8181036060830152620014c181846200124e565b905095945050505050565b60006020820190508181036000830152620014e7816200128f565b9050919050565b600060208201905081810360008301526200150981620012f7565b9050919050565b600060208201905081810360008301526200152b8162001339565b9050919050565b600060208201905081810360008301526200154d81620013a1565b9050919050565b600060208201905081810360008301526200156f81620013e3565b9050919050565b60006020820190508181036000830152620015918162001425565b9050919050565b6000604051905081810181811067ffffffffffffffff82111715620015c257620015c1620018a7565b5b8060405250919050565b600067ffffffffffffffff821115620015ea57620015e9620018a7565b5b601f19601f8301169050602081019050919050565b600081519050919050565b600082825260208201905092915050565b600082825260208201905092915050565b6000620016398262001785565b9150620016468362001785565b9250827fffffffffffffffffffffffffffffffffffffffffffffffffffffffffffffffff038211156200167e576200167d62001849565b5b828201905092915050565b6000620016968262001785565b9150620016a38362001785565b9250817fffffffffffffffffffffffffffffffffffffffffffffffffffffffffffffffff0483118215151615620016df57620016de62001849565b5b828202905092915050565b6000620016f78262001785565b9150620017048362001785565b9250828210156200171a576200171962001849565b5b828203905092915050565b6000620017328262001765565b9050919050565b60007fffffffff0000000000000000000000000000000000000000000000000000000082169050919050565b600073ffffffffffffffffffffffffffffffffffffffff82169050919050565b6000819050919050565b60005b83811015620017af57808201518184015260208101905062001792565b83811115620017bf576000848401525b50505050565b60006002820490506001821680620017de57607f821691505b60208210811415620017f557620017f462001878565b5b50919050565b6000620018088262001785565b91507fffffffffffffffffffffffffffffffffffffffffffffffffffffffffffffffff8214156200183e576200183d62001849565b5b600182019050919050565b7f4e487b7100000000000000000000000000000000000000000000000000000000600052601160045260246000fd5b7f4e487b7100000000000000000000000000000000000000000000000000000000600052602260045260246000fd5b7f4e487b7100000000000000000000000000000000000000000000000000000000600052604160045260246000fd5b6000601f19601f8301169050919050565b620018f28162001739565b8114620018fe57600080fd5b50565b61453080620019116000396000f3fe608060405260043610610237576000357c01000000000000000000000000000000000000000000000000000000009004806355f804b31161014057806395d89b41116100c8578063d5abeb011161008c578063d5abeb01146107d2578063d936547e146107fd578063da3ef23f1461083a578063e985e9c514610863578063f2fde38b146108a057610237565b806395d89b41146106ed578063a22cb46514610718578063b88d4fde14610741578063c66828621461076a578063c87b56dd1461079557610237565b806370a082311161010f57806370a082311461061a578063715018a6146106575780637f00c7a61461066e5780638da5cb5b146106975780639502743d146106c257610237565b806355f804b31461055e5780635c975abb146105875780636352211e146105b25780636c0360eb146105ef57610237565b80632f745c59116101c357806342842e0e1161019257806342842e0e14610469578063438b63001461049257806344a0d68a146104cf5780634a4c560d146104f85780634f6ccce71461052157610237565b80632f745c59146103dd57806330cc7ae01461041a5780633ccfd60b1461044357806340c10f191461044d57610237565b8063095ea7b31161020a578063095ea7b31461030a57806313faede61461033357806318160ddd1461035e578063239c70ae1461038957806323b872dd146103b457610237565b806301ffc9a71461023c57806302329a291461027957806306fdde03146102a2578063081812fc146102cd575b600080fd5b34801561024857600080fd5b50610263600480360381019061025e9190613355565b6108c9565b6040516102709190613d80565b60405180910390f35b34801561028557600080fd5b506102a0600480360381019061029b919061332c565b610943565b005b3480156102ae57600080fd5b506102b76109dc565b6040516102c49190613d9b565b60405180910390f35b3480156102d957600080fd5b506102f460048036038101906102ef91906133e8565b610a6e565b6040516103019190613cf7565b60405180910390f35b34801561031657600080fd5b50610331600480360381019061032c91906132f0565b610af3565b005b34801561033f57600080fd5b50610348610c0b565b604051610355919061401d565b60405180910390f35b34801561036a57600080fd5b50610373610c11565b604051610380919061401d565b60405180910390f35b34801561039557600080fd5b5061039e610c1e565b6040516103ab919061401d565b60405180910390f35b3480156103c057600080fd5b506103db60048036038101906103d691906131ea565b610c24565b005b3480156103e957600080fd5b5061040460048036038101906103ff91906132f0565b610c84565b604051610411919061401d565b60405180910390f35b34801561042657600080fd5b50610441600480360381019061043c9190613185565b610d29565b005b61044b610e00565b005b610467600480360381019061046291906132f0565b610ed3565b005b34801561047557600080fd5b50610490600480360381019061048b91906131ea565b61104f565b005b34801561049e57600080fd5b506104b960048036038101906104b49190613185565b61106f565b6040516104c69190613d5e565b60405180910390f35b3480156104db57600080fd5b506104f660048036038101906104f191906133e8565b611169565b005b34801561050457600080fd5b5061051f600480360381019061051a9190613185565b6111ef565b005b34801561052d57600080fd5b50610548600480360381019061054391906133e8565b6112c6565b604051610555919061401d565b60405180910390f35b34801561056a57600080fd5b50610585600480360381019061058091906133a7565b61135d565b005b34801561059357600080fd5b5061059c6113f3565b6040516105a99190613d80565b60405180910390f35b3480156105be57600080fd5b506105d960048036038101906105d491906133e8565b611406565b6040516105e69190613cf7565b60405180910390f35b3480156105fb57600080fd5b506106046114b8565b6040516106119190613d9b565b60405180910390f35b34801561062657600080fd5b50610641600480360381019061063c9190613185565b611546565b60405161064e919061401d565b60405180910390f35b34801561066357600080fd5b5061066c6115fe565b005b34801561067a57600080fd5b50610695600480360381019061069091906133e8565b611686565b005b3480156106a357600080fd5b506106ac61170c565b6040516106b99190613cf7565b60405180910390f35b3480156106ce57600080fd5b506106d7611736565b6040516106e49190613d9b565b60405180910390f35b3480156106f957600080fd5b506107026117c4565b60405161070f9190613d9b565b60405180910390f35b34801561072457600080fd5b5061073f600480360381019061073a91906132b4565b611856565b005b34801561074d57600080fd5b5061076860048036038101906107639190613239565b6119d7565b005b34801561077657600080fd5b5061077f611a39565b60405161078c9190613d9b565b60405180910390f35b3480156107a157600080fd5b506107bc60048036038101906107b791906133e8565b611ac7565b6040516107c99190613d9b565b60405180910390f35b3480156107de57600080fd5b506107e7611b74565b6040516107f4919061401d565b60405180910390f35b34801561080957600080fd5b50610824600480360381019061081f9190613185565b611b7a565b6040516108319190613d80565b60405180910390f35b34801561084657600080fd5b50610861600480360381019061085c91906133a7565b611b9a565b005b34801561086f57600080fd5b5061088a600480360381019061088591906131ae565b611c30565b6040516108979190613d80565b60405180910390f35b3480156108ac57600080fd5b506108c760048036038101906108c29190613185565b611cc4565b005b60007f780e9d63000000000000000000000000000000000000000000000000000000007bffffffffffffffffffffffffffffffffffffffffffffffffffffffff1916827bffffffffffffffffffffffffffffffffffffffffffffffffffffffff1916148061093c575061093b82611dd4565b5b9050919050565b61094b611eb6565b73ffffffffffffffffffffffffffffffffffffffff1661096961170c565b73ffffffffffffffffffffffffffffffffffffffff16146109bf576040517f08c379a00000000000000000000000000000000000000000000000000000000081526004016109b690613f3d565b60405180910390fd5b80601160006101000a81548160ff02191690831515021790555050565b6060600080546109eb90614325565b80601f0160208091040260200160405190810160405280929190818152602001828054610a1790614325565b8015610a645780601f10610a3957610100808354040283529160200191610a64565b820191906000526020600020905b815481529060010190602001808311610a4757829003601f168201915b5050505050905090565b6000610a7982611ebe565b610ab8576040517f08c379a0000000000000000000000000000000000000000000000000000000008152600401610aaf90613f1d565b60405180910390fd5b6004600083815260200190815260200160002060009054906101000a900473ffffffffffffffffffffffffffffffffffffffff169050919050565b6000610afe82611406565b90508073ffffffffffffffffffffffffffffffffffffffff168373ffffffffffffffffffffffffffffffffffffffff161415610b6f576040517f08c379a0000000000000000000000000000000000000000000000000000000008152600401610b6690613fbd565b60405180910390fd5b8073ffffffffffffffffffffffffffffffffffffffff16610b8e611eb6565b73ffffffffffffffffffffffffffffffffffffffff161480610bbd5750610bbc81610bb7611eb6565b611c30565b5b610bfc576040517f08c379a0000000000000000000000000000000000000000000000000000000008152600401610bf390613e9d565b60405180910390fd5b610c068383611f2a565b505050565b600e5481565b6000600880549050905090565b60105481565b610c35610c2f611eb6565b82611fe3565b610c74576040517f08c379a0000000000000000000000000000000000000000000000000000000008152600401610c6b90613fdd565b60405180910390fd5b610c7f8383836120c1565b505050565b6000610c8f83611546565b8210610cd0576040517f08c379a0000000000000000000000000000000000000000000000000000000008152600401610cc790613dbd565b60405180910390fd5b600660008473ffffffffffffffffffffffffffffffffffffffff1673ffffffffffffffffffffffffffffffffffffffff168152602001908152602001600020600083815260200190815260200160002054905092915050565b610d31611eb6565b73ffffffffffffffffffffffffffffffffffffffff16610d4f61170c565b73ffffffffffffffffffffffffffffffffffffffff1614610da5576040517f08c379a0000000000000000000000000000000000000000000000000000000008152600401610d9c90613f3d565b60405180910390fd5b6000601260008373ffffffffffffffffffffffffffffffffffffffff1673ffffffffffffffffffffffffffffffffffffffff16815260200190815260200160002060006101000a81548160ff02191690831515021790555050565b610e08611eb6565b73ffffffffffffffffffffffffffffffffffffffff16610e2661170c565b73ffffffffffffffffffffffffffffffffffffffff1614610e7c576040517f08c379a0000000000000000000000000000000000000000000000000000000008152600401610e7390613f3d565b60405180910390fd5b3373ffffffffffffffffffffffffffffffffffffffff166108fc3073ffffffffffffffffffffffffffffffffffffffff16319081150290604051600060405180830381858888f19350505050610ed157600080fd5b565b6000610edd610c11565b9050601160009054906101000a900460ff1615610ef957600080fd5b60008211610f0657600080fd5b601054821115610f1557600080fd5b600f548282610f24919061415a565b1115610f2f57600080fd5b610f3761170c565b73ffffffffffffffffffffffffffffffffffffffff163373ffffffffffffffffffffffffffffffffffffffff16146110135760011515601260003373ffffffffffffffffffffffffffffffffffffffff1673ffffffffffffffffffffffffffffffffffffffff16815260200190815260200160002060009054906101000a900460ff161515146110125781600e54610fcf91906141e1565b341015611011576040517f08c379a000000000000000000000000000000000000000000000000000000000815260040161100890613f9d565b60405180910390fd5b5b5b6000600190505b82811161104957611036848284611031919061415a565b61231d565b808061104190614357565b91505061101a565b50505050565b61106a838383604051806020016040528060008152506119d7565b505050565b6060600061107c83611546565b905060008167ffffffffffffffff8111156110c0577f4e487b7100000000000000000000000000000000000000000000000000000000600052604160045260246000fd5b6040519080825280602002602001820160405280156110ee5781602001602082028036833780820191505090505b50905060005b8281101561115e576111068582610c84565b82828151811061113f577f4e487b7100000000000000000000000000000000000000000000000000000000600052603260045260246000fd5b602002602001018181525050808061115690614357565b9150506110f4565b508092505050919050565b611171611eb6565b73ffffffffffffffffffffffffffffffffffffffff1661118f61170c565b73ffffffffffffffffffffffffffffffffffffffff16146111e5576040517f08c379a00000000000000000000000000000000000000000000000000000000081526004016111dc90613f3d565b60405180910390fd5b80600e8190555050565b6111f7611eb6565b73ffffffffffffffffffffffffffffffffffffffff1661121561170c565b73ffffffffffffffffffffffffffffffffffffffff161461126b576040517f08c379a000000000000000000000000000000000000000000000000000000000815260040161126290613f3d565b60405180910390fd5b6001601260008373ffffffffffffffffffffffffffffffffffffffff1673ffffffffffffffffffffffffffffffffffffffff16815260200190815260200160002060006101000a81548160ff02191690831515021790555050565b60006112d0610c11565b8210611311576040517f08c379a000000000000000000000000000000000000000000000000000000000815260040161130890613ffd565b60405180910390fd5b6008828154811061134b577f4e487b7100000000000000000000000000000000000000000000000000000000600052603260045260246000fd5b90600052602060002001549050919050565b611365611eb6565b73ffffffffffffffffffffffffffffffffffffffff1661138361170c565b73ffffffffffffffffffffffffffffffffffffffff16146113d9576040517f08c379a00000000000000000000000000000000000000000000000000000000081526004016113d090613f3d565b60405180910390fd5b80600b90805190602001906113ef929190612fa9565b5050565b601160009054906101000a900460ff1681565b6000806002600084815260200190815260200160002060009054906101000a900473ffffffffffffffffffffffffffffffffffffffff169050600073ffffffffffffffffffffffffffffffffffffffff168173ffffffffffffffffffffffffffffffffffffffff1614156114af576040517f08c379a00000000000000000000000000000000000000000000000000000000081526004016114a690613edd565b60405180910390fd5b80915050919050565b600b80546114c590614325565b80601f01602080910402602001604051908101604052809291908181526020018280546114f190614325565b801561153e5780601f106115135761010080835404028352916020019161153e565b820191906000526020600020905b81548152906001019060200180831161152157829003601f168201915b505050505081565b60008073ffffffffffffffffffffffffffffffffffffffff168273ffffffffffffffffffffffffffffffffffffffff1614156115b7576040517f08c379a00000000000000000000000000000000000000000000000000000000081526004016115ae90613ebd565b60405180910390fd5b600360008373ffffffffffffffffffffffffffffffffffffffff1673ffffffffffffffffffffffffffffffffffffffff168152602001908152602001600020549050919050565b611606611eb6565b73ffffffffffffffffffffffffffffffffffffffff1661162461170c565b73ffffffffffffffffffffffffffffffffffffffff161461167a576040517f08c379a000000000000000000000000000000000000000000000000000000000815260040161167190613f3d565b60405180910390fd5b611684600061233b565b565b61168e611eb6565b73ffffffffffffffffffffffffffffffffffffffff166116ac61170c565b73ffffffffffffffffffffffffffffffffffffffff1614611702576040517f08c379a00000000000000000000000000000000000000000000000000000000081526004016116f990613f3d565b60405180910390fd5b8060108190555050565b6000600a60009054906101000a900473ffffffffffffffffffffffffffffffffffffffff16905090565b600d805461174390614325565b80601f016020809104026020016040519081016040528092919081815260200182805461176f90614325565b80156117bc5780601f10611791576101008083540402835291602001916117bc565b820191906000526020600020905b81548152906001019060200180831161179f57829003601f168201915b505050505081565b6060600180546117d390614325565b80601f01602080910402602001604051908101604052809291908181526020018280546117ff90614325565b801561184c5780601f106118215761010080835404028352916020019161184c565b820191906000526020600020905b81548152906001019060200180831161182f57829003601f168201915b5050505050905090565b61185e611eb6565b73ffffffffffffffffffffffffffffffffffffffff168273ffffffffffffffffffffffffffffffffffffffff1614156118cc576040517f08c379a00000000000000000000000000000000000000000000000000000000081526004016118c390613e5d565b60405180910390fd5b80600560006118d9611eb6565b73ffffffffffffffffffffffffffffffffffffffff1673ffffffffffffffffffffffffffffffffffffffff16815260200190815260200160002060008473ffffffffffffffffffffffffffffffffffffffff1673ffffffffffffffffffffffffffffffffffffffff16815260200190815260200160002060006101000a81548160ff0219169083151502179055508173ffffffffffffffffffffffffffffffffffffffff16611986611eb6565b73ffffffffffffffffffffffffffffffffffffffff167f17307eab39ab6107e8899845ad3d59bd9653f200f220920489ca2b5937696c31836040516119cb9190613d80565b60405180910390a35050565b6119e86119e2611eb6565b83611fe3565b611a27576040517f08c379a0000000000000000000000000000000000000000000000000000000008152600401611a1e90613fdd565b60405180910390fd5b611a3384848484612401565b50505050565b600c8054611a4690614325565b80601f0160208091040260200160405190810160405280929190818152602001828054611a7290614325565b8015611abf5780601f10611a9457610100808354040283529160200191611abf565b820191906000526020600020905b815481529060010190602001808311611aa257829003601f168201915b505050505081565b6060611ad282611ebe565b611b11576040517f08c379a0000000000000000000000000000000000000000000000000000000008152600401611b0890613f7d565b60405180910390fd5b6000611b1b61245d565b90506000815111611b3b5760405180602001604052806000815250611b6c565b80600d611b47856124ef565b600c604051602001611b5c9493929190613cb9565b6040516020818303038152906040525b915050919050565b600f5481565b60126020528060005260406000206000915054906101000a900460ff1681565b611ba2611eb6565b73ffffffffffffffffffffffffffffffffffffffff16611bc061170c565b73ffffffffffffffffffffffffffffffffffffffff1614611c16576040517f08c379a0000000000000000000000000000000000000000000000000000000008152600401611c0d90613f3d565b60405180910390fd5b80600c9080519060200190611c2c929190612fa9565b5050565b6000600560008473ffffffffffffffffffffffffffffffffffffffff1673ffffffffffffffffffffffffffffffffffffffff16815260200190815260200160002060008373ffffffffffffffffffffffffffffffffffffffff1673ffffffffffffffffffffffffffffffffffffffff16815260200190815260200160002060009054906101000a900460ff16905092915050565b611ccc611eb6565b73ffffffffffffffffffffffffffffffffffffffff16611cea61170c565b73ffffffffffffffffffffffffffffffffffffffff1614611d40576040517f08c379a0000000000000000000000000000000000000000000000000000000008152600401611d3790613f3d565b60405180910390fd5b600073ffffffffffffffffffffffffffffffffffffffff168173ffffffffffffffffffffffffffffffffffffffff161415611db0576040517f08c379a0000000000000000000000000000000000000000000000000000000008152600401611da790613dfd565b60405180910390fd5b611db98161233b565b50565b600080823b905060008111915050919050565b505050565b60007f80ac58cd000000000000000000000000000000000000000000000000000000007bffffffffffffffffffffffffffffffffffffffffffffffffffffffff1916827bffffffffffffffffffffffffffffffffffffffffffffffffffffffff19161480611e9f57507f5b5e139f000000000000000000000000000000000000000000000000000000007bffffffffffffffffffffffffffffffffffffffffffffffffffffffff1916827bffffffffffffffffffffffffffffffffffffffffffffffffffffffff1916145b80611eaf5750611eae826126bb565b5b9050919050565b600033905090565b60008073ffffffffffffffffffffffffffffffffffffffff166002600084815260200190815260200160002060009054906101000a900473ffffffffffffffffffffffffffffffffffffffff1673ffffffffffffffffffffffffffffffffffffffff1614159050919050565b816004600083815260200190815260200160002060006101000a81548173ffffffffffffffffffffffffffffffffffffffff021916908373ffffffffffffffffffffffffffffffffffffffff160217905550808273ffffffffffffffffffffffffffffffffffffffff16611f9d83611406565b73ffffffffffffffffffffffffffffffffffffffff167f8c5be1e5ebec7d5bd14f71427d1e84f3dd0314c0f7b2291e5b200ac8c7c3b92560405160405180910390a45050565b6000611fee82611ebe565b61202d576040517f08c379a000000000000000000000000000000000000000000000000000000000815260040161202490613e7d565b60405180910390fd5b600061203883611406565b90508073ffffffffffffffffffffffffffffffffffffffff168473ffffffffffffffffffffffffffffffffffffffff1614806120a757508373ffffffffffffffffffffffffffffffffffffffff1661208f84610a6e565b73ffffffffffffffffffffffffffffffffffffffff16145b806120b857506120b78185611c30565b5b91505092915050565b8273ffffffffffffffffffffffffffffffffffffffff166120e182611406565b73ffffffffffffffffffffffffffffffffffffffff1614612137576040517f08c379a000000000000000000000000000000000000000000000000000000000815260040161212e90613f5d565b60405180910390fd5b600073ffffffffffffffffffffffffffffffffffffffff168273ffffffffffffffffffffffffffffffffffffffff1614156121a7576040517f08c379a000000000000000000000000000000000000000000000000000000000815260040161219e90613e3d565b60405180910390fd5b6121b2838383612725565b6121bd600082611f2a565b6001600360008573ffffffffffffffffffffffffffffffffffffffff1673ffffffffffffffffffffffffffffffffffffffff168152602001908152602001600020600082825461220d919061423b565b925050819055506001600360008473ffffffffffffffffffffffffffffffffffffffff1673ffffffffffffffffffffffffffffffffffffffff1681526020019081526020016000206000828254612264919061415a565b92505081905550816002600083815260200190815260200160002060006101000a81548173ffffffffffffffffffffffffffffffffffffffff021916908373ffffffffffffffffffffffffffffffffffffffff160217905550808273ffffffffffffffffffffffffffffffffffffffff168473ffffffffffffffffffffffffffffffffffffffff167fddf252ad1be2c89b69c2b068fc378daa952ba7f163c4a11628f55a4df523b3ef60405160405180910390a4505050565b612337828260405180602001604052806000815250612839565b5050565b6000600a60009054906101000a900473ffffffffffffffffffffffffffffffffffffffff16905081600a60006101000a81548173ffffffffffffffffffffffffffffffffffffffff021916908373ffffffffffffffffffffffffffffffffffffffff1602179055508173ffffffffffffffffffffffffffffffffffffffff168173ffffffffffffffffffffffffffffffffffffffff167f8be0079c531659141344cd1fd0a4f28419497f9722a3daafe3b4186f6b6457e060405160405180910390a35050565b61240c8484846120c1565b61241884848484612894565b612457576040517f08c379a000000000000000000000000000000000000000000000000000000000815260040161244e90613ddd565b60405180910390fd5b50505050565b6060600b805461246c90614325565b80601f016020809104026020016040519081016040528092919081815260200182805461249890614325565b80156124e55780601f106124ba576101008083540402835291602001916124e5565b820191906000526020600020905b8154815290600101906020018083116124c857829003601f168201915b5050505050905090565b60606000821415612537576040518060400160405280600181526020017f300000000000000000000000000000000000000000000000000000000000000081525090506126b6565b600082905060005b6000821461256957808061255290614357565b915050600a8261256291906141b0565b915061253f565b60008167ffffffffffffffff8111156125ab577f4e487b7100000000000000000000000000000000000000000000000000000000600052604160045260246000fd5b6040519080825280601f01601f1916602001820160405280156125dd5781602001600182028036833780820191505090505b5090505b600085146126af576001826125f6919061423b565b9150600a8561260591906143a0565b6030612611919061415a565b7f01000000000000000000000000000000000000000000000000000000000000000281838151811061266c577f4e487b7100000000000000000000000000000000000000000000000000000000600052603260045260246000fd5b60200101907effffffffffffffffffffffffffffffffffffffffffffffffffffffffffffff1916908160001a905350600a856126a891906141b0565b94506125e1565b8093505050505b919050565b60007f01ffc9a7000000000000000000000000000000000000000000000000000000007bffffffffffffffffffffffffffffffffffffffffffffffffffffffff1916827bffffffffffffffffffffffffffffffffffffffffffffffffffffffff1916149050919050565b612730838383611dcf565b600073ffffffffffffffffffffffffffffffffffffffff168373ffffffffffffffffffffffffffffffffffffffff1614156127735761276e81612a63565b6127b2565b8173ffffffffffffffffffffffffffffffffffffffff168373ffffffffffffffffffffffffffffffffffffffff16146127b1576127b08382612aac565b5b5b600073ffffffffffffffffffffffffffffffffffffffff168273ffffffffffffffffffffffffffffffffffffffff1614156127f5576127f081612c19565b612834565b8273ffffffffffffffffffffffffffffffffffffffff168273ffffffffffffffffffffffffffffffffffffffff1614612833576128328282612d5c565b5b5b505050565b6128438383612ddb565b6128506000848484612894565b61288f576040517f08c379a000000000000000000000000000000000000000000000000000000000815260040161288690613ddd565b60405180910390fd5b505050565b60006128b58473ffffffffffffffffffffffffffffffffffffffff16611dbc565b15612a56578373ffffffffffffffffffffffffffffffffffffffff1663150b7a026128de611eb6565b8786866040518563ffffffff167c010000000000000000000000000000000000000000000000000000000002815260040161291c9493929190613d12565b602060405180830381600087803b15801561293657600080fd5b505af192505050801561296757506040513d601f19601f82011682018060405250810190612964919061337e565b60015b6129ea573d8060008114612997576040519150601f19603f3d011682016040523d82523d6000602084013e61299c565b606091505b506000815114156129e2576040517f08c379a00000000000000000000000000000000000000000000000000000000081526004016129d990613ddd565b60405180910390fd5b805181602001fd5b63150b7a027c0100000000000000000000000000000000000000000000000000000000027bffffffffffffffffffffffffffffffffffffffffffffffffffffffff1916817bffffffffffffffffffffffffffffffffffffffffffffffffffffffff191614915050612a5b565b600190505b949350505050565b6008805490506009600083815260200190815260200160002081905550600881908060018154018082558091505060019003906000526020600020016000909190919091505550565b60006001612ab984611546565b612ac3919061423b565b9050600060076000848152602001908152602001600020549050818114612ba8576000600660008673ffffffffffffffffffffffffffffffffffffffff1673ffffffffffffffffffffffffffffffffffffffff168152602001908152602001600020600084815260200190815260200160002054905080600660008773ffffffffffffffffffffffffffffffffffffffff1673ffffffffffffffffffffffffffffffffffffffff168152602001908152602001600020600084815260200190815260200160002081905550816007600083815260200190815260200160002081905550505b6007600084815260200190815260200160002060009055600660008573ffffffffffffffffffffffffffffffffffffffff1673ffffffffffffffffffffffffffffffffffffffff16815260200190815260200160002060008381526020019081526020016000206000905550505050565b60006001600880549050612c2d919061423b565b9050600060096000848152602001908152602001600020549050600060088381548110612c83577f4e487b7100000000000000000000000000000000000000000000000000000000600052603260045260246000fd5b906000526020600020015490508060088381548110612ccb577f4e487b7100000000000000000000000000000000000000000000000000000000600052603260045260246000fd5b906000526020600020018190555081600960008381526020019081526020016000208190555060096000858152602001908152602001600020600090556008805480612d40577f4e487b7100000000000000000000000000000000000000000000000000000000600052603160045260246000fd5b6001900381819060005260206000200160009055905550505050565b6000612d6783611546565b905081600660008573ffffffffffffffffffffffffffffffffffffffff1673ffffffffffffffffffffffffffffffffffffffff168152602001908152602001600020600083815260200190815260200160002081905550806007600084815260200190815260200160002081905550505050565b600073ffffffffffffffffffffffffffffffffffffffff168273ffffffffffffffffffffffffffffffffffffffff161415612e4b576040517f08c379a0000000000000000000000000000000000000000000000000000000008152600401612e4290613efd565b60405180910390fd5b612e5481611ebe565b15612e94576040517f08c379a0000000000000000000000000000000000000000000000000000000008152600401612e8b90613e1d565b60405180910390fd5b612ea060008383612725565b6001600360008473ffffffffffffffffffffffffffffffffffffffff1673ffffffffffffffffffffffffffffffffffffffff1681526020019081526020016000206000828254612ef0919061415a565b92505081905550816002600083815260200190815260200160002060006101000a81548173ffffffffffffffffffffffffffffffffffffffff021916908373ffffffffffffffffffffffffffffffffffffffff160217905550808273ffffffffffffffffffffffffffffffffffffffff16600073ffffffffffffffffffffffffffffffffffffffff167fddf252ad1be2c89b69c2b068fc378daa952ba7f163c4a11628f55a4df523b3ef60405160405180910390a45050565b828054612fb590614325565b90600052602060002090601f016020900481019282612fd7576000855561301e565b82601f10612ff057805160ff191683800117855561301e565b8280016001018555821561301e579182015b8281111561301d578251825591602001919060010190613002565b5b50905061302b919061302f565b5090565b5b80821115613048576000816000905550600101613030565b5090565b600061305f61305a84614069565b614038565b90508281526020810184848401111561307757600080fd5b6130828482856142e3565b509392505050565b600061309d61309884614099565b614038565b9050828152602081018484840111156130b557600080fd5b6130c08482856142e3565b509392505050565b6000813590506130d78161449e565b92915050565b6000813590506130ec816144b5565b92915050565b600081359050613101816144cc565b92915050565b600081519050613116816144cc565b92915050565b600082601f83011261312d57600080fd5b813561313d84826020860161304c565b91505092915050565b600082601f83011261315757600080fd5b813561316784826020860161308a565b91505092915050565b60008135905061317f816144e3565b92915050565b60006020828403121561319757600080fd5b60006131a5848285016130c8565b91505092915050565b600080604083850312156131c157600080fd5b60006131cf858286016130c8565b92505060206131e0858286016130c8565b9150509250929050565b6000806000606084860312156131ff57600080fd5b600061320d868287016130c8565b935050602061321e868287016130c8565b925050604061322f86828701613170565b9150509250925092565b6000806000806080858703121561324f57600080fd5b600061325d878288016130c8565b945050602061326e878288016130c8565b935050604061327f87828801613170565b925050606085013567ffffffffffffffff81111561329c57600080fd5b6132a88782880161311c565b91505092959194509250565b600080604083850312156132c757600080fd5b60006132d5858286016130c8565b92505060206132e6858286016130dd565b9150509250929050565b6000806040838503121561330357600080fd5b6000613311858286016130c8565b925050602061332285828601613170565b9150509250929050565b60006020828403121561333e57600080fd5b600061334c848285016130dd565b91505092915050565b60006020828403121561336757600080fd5b6000613375848285016130f2565b91505092915050565b60006020828403121561339057600080fd5b600061339e84828501613107565b91505092915050565b6000602082840312156133b957600080fd5b600082013567ffffffffffffffff8111156133d357600080fd5b6133df84828501613146565b91505092915050565b6000602082840312156133fa57600080fd5b600061340884828501613170565b91505092915050565b600061341d8383613c9b565b60208301905092915050565b6134328161426f565b82525050565b6000613443826140ee565b61344d818561411c565b9350613458836140c9565b8060005b838110156134895781516134708882613411565b975061347b8361410f565b92505060018101905061345c565b5085935050505092915050565b61349f81614281565b82525050565b60006134b0826140f9565b6134ba818561412d565b93506134ca8185602086016142f2565b6134d38161448d565b840191505092915050565b60006134e982614104565b6134f3818561413e565b93506135038185602086016142f2565b61350c8161448d565b840191505092915050565b600061352282614104565b61352c818561414f565b935061353c8185602086016142f2565b80840191505092915050565b6000815461355581614325565b61355f818661414f565b9450600182166000811461357a576001811461358b576135be565b60ff198316865281860193506135be565b613594856140d9565b60005b838110156135b657815481890152600182019150602081019050613597565b838801955050505b50505092915050565b60006135d4602b8361413e565b91507f455243373231456e756d657261626c653a206f776e657220696e646578206f7560008301527f74206f6620626f756e64730000000000000000000000000000000000000000006020830152604082019050919050565b600061363a60328361413e565b91507f4552433732313a207472616e7366657220746f206e6f6e20455243373231526560008301527f63656976657220696d706c656d656e74657200000000000000000000000000006020830152604082019050919050565b60006136a060268361413e565b91507f4f776e61626c653a206e6577206f776e657220697320746865207a65726f206160008301527f64647265737300000000000000000000000000000000000000000000000000006020830152604082019050919050565b6000613706601c8361413e565b91507f4552433732313a20746f6b656e20616c7265616479206d696e746564000000006000830152602082019050919050565b600061374660248361413e565b91507f4552433732313a207472616e7366657220746f20746865207a65726f2061646460008301527f72657373000000000000000000000000000000000000000000000000000000006020830152604082019050919050565b60006137ac60198361413e565b91507f4552433732313a20617070726f766520746f2063616c6c6572000000000000006000830152602082019050919050565b60006137ec602c8361413e565b91507f4552433732313a206f70657261746f7220717565727920666f72206e6f6e657860008301527f697374656e7420746f6b656e00000000000000000000000000000000000000006020830152604082019050919050565b600061385260388361413e565b91507f4552433732313a20617070726f76652063616c6c6572206973206e6f74206f7760008301527f6e6572206e6f7220617070726f76656420666f7220616c6c00000000000000006020830152604082019050919050565b60006138b8602a8361413e565b91507f4552433732313a2062616c616e636520717565727920666f7220746865207a6560008301527f726f2061646472657373000000000000000000000000000000000000000000006020830152604082019050919050565b600061391e60298361413e565b91507f4552433732313a206f776e657220717565727920666f72206e6f6e657869737460008301527f656e7420746f6b656e00000000000000000000000000000000000000000000006020830152604082019050919050565b600061398460208361413e565b91507f4552433732313a206d696e7420746f20746865207a65726f20616464726573736000830152602082019050919050565b60006139c4602c8361413e565b91507f4552433732313a20617070726f76656420717565727920666f72206e6f6e657860008301527f697374656e7420746f6b656e00000000000000000000000000000000000000006020830152604082019050919050565b6000613a2a60208361413e565b91507f4f776e61626c653a2063616c6c6572206973206e6f7420746865206f776e65726000830152602082019050919050565b6000613a6a60298361413e565b91507f4552433732313a207472616e73666572206f6620746f6b656e2074686174206960008301527f73206e6f74206f776e00000000000000000000000000000000000000000000006020830152604082019050919050565b6000613ad0602f8361413e565b91507f4552433732314d657461646174613a2055524920717565727920666f72206e6f60008301527f6e6578697374656e7420746f6b656e00000000000000000000000000000000006020830152604082019050919050565b6000613b3660138361413e565b91507f4e6f7420656e6f756768204554482073656e74000000000000000000000000006000830152602082019050919050565b6000613b7660218361413e565b91507f4552433732313a20617070726f76616c20746f2063757272656e74206f776e6560008301527f72000000000000000000000000000000000000000000000000000000000000006020830152604082019050919050565b6000613bdc60318361413e565b91507f4552433732313a207472616e736665722063616c6c6572206973206e6f74206f60008301527f776e6572206e6f7220617070726f7665640000000000000000000000000000006020830152604082019050919050565b6000613c42602c8361413e565b91507f455243373231456e756d657261626c653a20676c6f62616c20696e646578206f60008301527f7574206f6620626f756e647300000000000000000000000000000000000000006020830152604082019050919050565b613ca4816142d9565b82525050565b613cb3816142d9565b82525050565b6000613cc58287613517565b9150613cd18286613548565b9150613cdd8285613517565b9150613ce98284613548565b915081905095945050505050565b6000602082019050613d0c6000830184613429565b92915050565b6000608082019050613d276000830187613429565b613d346020830186613429565b613d416040830185613caa565b8181036060830152613d5381846134a5565b905095945050505050565b60006020820190508181036000830152613d788184613438565b905092915050565b6000602082019050613d956000830184613496565b92915050565b60006020820190508181036000830152613db581846134de565b905092915050565b60006020820190508181036000830152613dd6816135c7565b9050919050565b60006020820190508181036000830152613df68161362d565b9050919050565b60006020820190508181036000830152613e1681613693565b9050919050565b60006020820190508181036000830152613e36816136f9565b9050919050565b60006020820190508181036000830152613e5681613739565b9050919050565b60006020820190508181036000830152613e768161379f565b9050919050565b60006020820190508181036000830152613e96816137df565b9050919050565b60006020820190508181036000830152613eb681613845565b9050919050565b60006020820190508181036000830152613ed6816138ab565b9050919050565b60006020820190508181036000830152613ef681613911565b9050919050565b60006020820190508181036000830152613f1681613977565b9050919050565b60006020820190508181036000830152613f36816139b7565b9050919050565b60006020820190508181036000830152613f5681613a1d565b9050919050565b60006020820190508181036000830152613f7681613a5d565b9050919050565b60006020820190508181036000830152613f9681613ac3565b9050919050565b60006020820190508181036000830152613fb681613b29565b9050919050565b60006020820190508181036000830152613fd681613b69565b9050919050565b60006020820190508181036000830152613ff681613bcf565b9050919050565b6000602082019050818103600083015261401681613c35565b9050919050565b60006020820190506140326000830184613caa565b92915050565b6000604051905081810181811067ffffffffffffffff8211171561405f5761405e61445e565b5b8060405250919050565b600067ffffffffffffffff8211156140845761408361445e565b5b601f19601f8301169050602081019050919050565b600067ffffffffffffffff8211156140b4576140b361445e565b5b601f19601f8301169050602081019050919050565b6000819050602082019050919050565b60008190508160005260206000209050919050565b600081519050919050565b600081519050919050565b600081519050919050565b6000602082019050919050565b600082825260208201905092915050565b600082825260208201905092915050565b600082825260208201905092915050565b600081905092915050565b6000614165826142d9565b9150614170836142d9565b9250827fffffffffffffffffffffffffffffffffffffffffffffffffffffffffffffffff038211156141a5576141a46143d1565b5b828201905092915050565b60006141bb826142d9565b91506141c6836142d9565b9250826141d6576141d5614400565b5b828204905092915050565b60006141ec826142d9565b91506141f7836142d9565b9250817fffffffffffffffffffffffffffffffffffffffffffffffffffffffffffffffff04831182151516156142305761422f6143d1565b5b828202905092915050565b6000614246826142d9565b9150614251836142d9565b925082821015614264576142636143d1565b5b828203905092915050565b600061427a826142b9565b9050919050565b60008115159050919050565b60007fffffffff0000000000000000000000000000000000000000000000000000000082169050919050565b600073ffffffffffffffffffffffffffffffffffffffff82169050919050565b6000819050919050565b82818337600083830152505050565b60005b838110156143105780820151818401526020810190506142f5565b8381111561431f576000848401525b50505050565b6000600282049050600182168061433d57607f821691505b602082108114156143515761435061442f565b5b50919050565b6000614362826142d9565b91507fffffffffffffffffffffffffffffffffffffffffffffffffffffffffffffffff821415614395576143946143d1565b5b600182019050919050565b60006143ab826142d9565b91506143b6836142d9565b9250826143c6576143c5614400565b5b828206905092915050565b7f4e487b7100000000000000000000000000000000000000000000000000000000600052601160045260246000fd5b7f4e487b7100000000000000000000000000000000000000000000000000000000600052601260045260246000fd5b7f4e487b7100000000000000000000000000000000000000000000000000000000600052602260045260246000fd5b7f4e487b7100000000000000000000000000000000000000000000000000000000600052604160045260246000fd5b6000601f19601f8301169050919050565b6144a78161426f565b81146144b257600080fd5b50565b6144be81614281565b81146144c957600080fd5b50565b6144d58161428d565b81146144e057600080fd5b50565b6144ec816142d9565b81146144f757600080fd5b5056fea2646970667358221220db8c2d833cd146ffce8678c089cb2f75862693e7610d7695ac95f07a75bc16df64736f6c63430008000033",
  "immutableReferences": {},
  "source": "// SPDX-License-Identifier: GPL-3.0\n\npragma solidity ^0.8.0;\n\nimport \"@openzeppelin/contracts/token/ERC721/extensions/ERC721Enumerable.sol\";\nimport \"@openzeppelin/contracts/access/Ownable.sol\";\n\ncontract RockstarsNFTDev is ERC721Enumerable, Ownable {\n  using Strings for uint256;\n\n  string public baseURI;\n  string public baseExtension = \".json\";\n  string public metaDataFolder = \"metadata/\";\n  uint256 public cost = .0001 ether;\n  uint256 public maxSupply = 100;\n  uint256 public maxMintAmount = 20;\n  bool public paused = false;\n  mapping(address => bool) public whitelisted;\n\n  constructor(\n    string memory _name,\n    string memory _symbol,\n    string memory _initBaseURI\n  ) ERC721(_name, _symbol) {\n    setBaseURI(_initBaseURI);\n    mint(msg.sender, 5);\n  }\n\n  // internal\n  function _baseURI() internal view virtual override returns (string memory) {\n    return baseURI;\n  }\n\n  // public\n  function mint(address _to, uint256 _mintAmount) public payable {\n    uint256 supply = totalSupply();\n    require(!paused);\n    require(_mintAmount > 0);\n    require(_mintAmount <= maxMintAmount);\n    require(supply + _mintAmount <= maxSupply);\n\n    if (msg.sender != owner()) {\n        if(whitelisted[msg.sender] != true) {\n          require(msg.value >= cost * _mintAmount, \"Not enough ETH sent\");\n        }\n    }\n\n    for (uint256 i = 1; i <= _mintAmount; i++) {\n      _safeMint(_to, supply + i);\n    }\n  }\n\n  function walletOfOwner(address _owner)\n    public\n    view\n    returns (uint256[] memory)\n  {\n    uint256 ownerTokenCount = balanceOf(_owner);\n    uint256[] memory tokenIds = new uint256[](ownerTokenCount);\n    for (uint256 i; i < ownerTokenCount; i++) {\n      tokenIds[i] = tokenOfOwnerByIndex(_owner, i);\n    }\n    return tokenIds;\n  }\n\n  function tokenURI(uint256 tokenId)\n    public\n    view\n    virtual\n    override\n    returns (string memory)\n  {\n    require(\n      _exists(tokenId),\n      \"ERC721Metadata: URI query for nonexistent token\"\n    );\n\n    string memory currentBaseURI = _baseURI();\n    return bytes(currentBaseURI).length > 0\n        ? string(abi.encodePacked(currentBaseURI, metaDataFolder, tokenId.toString(), baseExtension))\n        : \"\";\n  }\n\n  //only owner\n  function setCost(uint256 _newCost) public onlyOwner() {\n    cost = _newCost;\n  }\n\n  function setmaxMintAmount(uint256 _newmaxMintAmount) public onlyOwner() {\n    maxMintAmount = _newmaxMintAmount;\n  }\n\n  function setBaseURI(string memory _newBaseURI) public onlyOwner {\n    baseURI = _newBaseURI;\n  }\n\n  function setBaseExtension(string memory _newBaseExtension) public onlyOwner {\n    baseExtension = _newBaseExtension;\n  }\n\n  function pause(bool _state) public onlyOwner {\n    paused = _state;\n  }\n\n function whitelistUser(address _user) public onlyOwner {\n    whitelisted[_user] = true;\n  }\n\n  function removeWhitelistUser(address _user) public onlyOwner {\n    whitelisted[_user] = false;\n  }\n\n  function withdraw() public payable onlyOwner {\n    require(payable(msg.sender).send(address(this).balance));\n  }\n}\n",
  "sourcePath": "/Users/zackwilder/code/rockstars-nft/contracts/RockstarsNFTDev.sol",
  "compiler": {
    "name": "solc",
    "version": "0.8.0+commit.c7dfd78e.Emscripten.clang"
  },
  "schemaVersion": "3.4.3",
  "updatedAt": "2021-10-21T00:11:37.235Z",
  "networkType": "ethereum",
  "devdoc": {
    "kind": "dev",
    "methods": {
      "approve(address,uint256)": {
        "details": "See {IERC721-approve}."
      },
      "balanceOf(address)": {
        "details": "See {IERC721-balanceOf}."
      },
      "getApproved(uint256)": {
        "details": "See {IERC721-getApproved}."
      },
      "isApprovedForAll(address,address)": {
        "details": "See {IERC721-isApprovedForAll}."
      },
      "name()": {
        "details": "See {IERC721Metadata-name}."
      },
      "owner()": {
        "details": "Returns the address of the current owner."
      },
      "ownerOf(uint256)": {
        "details": "See {IERC721-ownerOf}."
      },
      "renounceOwnership()": {
        "details": "Leaves the contract without owner. It will not be possible to call `onlyOwner` functions anymore. Can only be called by the current owner. NOTE: Renouncing ownership will leave the contract without an owner, thereby removing any functionality that is only available to the owner."
      },
      "safeTransferFrom(address,address,uint256)": {
        "details": "See {IERC721-safeTransferFrom}."
      },
      "safeTransferFrom(address,address,uint256,bytes)": {
        "details": "See {IERC721-safeTransferFrom}."
      },
      "setApprovalForAll(address,bool)": {
        "details": "See {IERC721-setApprovalForAll}."
      },
      "supportsInterface(bytes4)": {
        "details": "See {IERC165-supportsInterface}."
      },
      "symbol()": {
        "details": "See {IERC721Metadata-symbol}."
      },
      "tokenByIndex(uint256)": {
        "details": "See {IERC721Enumerable-tokenByIndex}."
      },
      "tokenOfOwnerByIndex(address,uint256)": {
        "details": "See {IERC721Enumerable-tokenOfOwnerByIndex}."
      },
      "tokenURI(uint256)": {
        "details": "See {IERC721Metadata-tokenURI}."
      },
      "totalSupply()": {
        "details": "See {IERC721Enumerable-totalSupply}."
      },
      "transferFrom(address,address,uint256)": {
        "details": "See {IERC721-transferFrom}."
      },
      "transferOwnership(address)": {
        "details": "Transfers ownership of the contract to a new account (`newOwner`). Can only be called by the current owner."
      }
    },
    "version": 1
  },
  "userdoc": {
    "kind": "user",
    "methods": {},
    "version": 1
  }
}